{
  "abi": [
    {
      "inputs": [
        {
          "internalType": "address",
          "name": "_creditFacadeV3Addr",
          "type": "address"
        },
        {
          "internalType": "address",
          "name": "_creditManager",
          "type": "address"
        },
        {
          "internalType": "address",
          "name": "_mailbox",
          "type": "address"
        }
      ],
      "stateMutability": "nonpayable",
      "type": "constructor"
    },
    {
      "anonymous": false,
      "inputs": [
        {
          "indexed": false,
          "internalType": "address",
          "name": "caAddr",
          "type": "address"
        },
        {
          "indexed": false,
          "internalType": "uint256",
          "name": "userMaxDebt",
          "type": "uint256"
        }
      ],
      "name": "CreditAccountOpened",
      "type": "event"
    },
    {
      "anonymous": false,
      "inputs": [
        {
          "indexed": false,
          "internalType": "address",
          "name": "creditManager",
          "type": "address"
        }
      ],
      "name": "CreditManagerAddressUpdated",
      "type": "event"
    },
    {
      "anonymous": false,
      "inputs": [
        {
          "indexed": true,
          "internalType": "uint32",
          "name": "_origin",
          "type": "uint32"
        },
        {
          "indexed": true,
          "internalType": "bytes32",
          "name": "_sender",
          "type": "bytes32"
        }
      ],
      "name": "Handle",
      "type": "event"
    },
    {
      "anonymous": false,
      "inputs": [
        {
          "indexed": true,
          "internalType": "address",
          "name": "previousOwner",
          "type": "address"
        },
        {
          "indexed": true,
          "internalType": "address",
          "name": "newOwner",
          "type": "address"
        }
      ],
      "name": "OwnershipTransferred",
      "type": "event"
    },
    {
      "inputs": [],
      "name": "creditAccount",
      "outputs": [
        {
          "internalType": "address",
          "name": "",
          "type": "address"
        }
      ],
      "stateMutability": "view",
      "type": "function"
    },
    {
      "inputs": [],
      "name": "creditFacade",
      "outputs": [
        {
          "internalType": "contract ICreditFacadeV3",
          "name": "",
          "type": "address"
        }
      ],
      "stateMutability": "view",
      "type": "function"
    },
    {
      "inputs": [],
      "name": "creditManager",
      "outputs": [
        {
          "internalType": "contract ICreditManagerV3",
          "name": "",
          "type": "address"
        }
      ],
      "stateMutability": "view",
      "type": "function"
    },
    {
      "inputs": [],
      "name": "getCreditFacadeAddr",
      "outputs": [
        {
          "internalType": "address",
          "name": "",
          "type": "address"
        }
      ],
      "stateMutability": "view",
      "type": "function"
    },
    {
      "inputs": [
        {
          "internalType": "uint32",
          "name": "_origin",
          "type": "uint32"
        },
        {
          "internalType": "bytes32",
          "name": "_sender",
          "type": "bytes32"
        },
        {
          "internalType": "bytes",
          "name": "_message",
          "type": "bytes"
        }
      ],
      "name": "handle",
      "outputs": [],
      "stateMutability": "payable",
      "type": "function"
    },
    {
      "inputs": [],
      "name": "handled",
      "outputs": [
        {
          "internalType": "bool",
          "name": "",
          "type": "bool"
        }
      ],
      "stateMutability": "view",
      "type": "function"
    },
    {
      "inputs": [],
      "name": "mailbox",
      "outputs": [
        {
          "internalType": "address",
          "name": "",
          "type": "address"
        }
      ],
      "stateMutability": "view",
      "type": "function"
    },
    {
      "inputs": [
        {
          "internalType": "address",
          "name": "user",
          "type": "address"
        }
      ],
      "name": "maxDebt",
      "outputs": [
        {
          "internalType": "uint256",
          "name": "debt",
          "type": "uint256"
        }
      ],
      "stateMutability": "view",
      "type": "function"
    },
    {
      "inputs": [
        {
          "internalType": "address",
          "name": "creditAccount",
          "type": "address"
        },
        {
          "components": [
            {
              "internalType": "address",
              "name": "target",
              "type": "address"
            },
            {
              "internalType": "bytes",
              "name": "callData",
              "type": "bytes"
            }
          ],
          "internalType": "struct MultiCall[]",
          "name": "calls",
          "type": "tuple[]"
        }
      ],
      "name": "multicall",
      "outputs": [],
      "stateMutability": "payable",
      "type": "function"
    },
    {
      "inputs": [
        {
          "internalType": "address",
          "name": "callerAddr",
          "type": "address"
        },
        {
          "internalType": "uint256",
          "name": "userMaxDebt",
          "type": "uint256"
        }
      ],
      "name": "openCreditAccount",
      "outputs": [
        {
          "internalType": "address",
          "name": "",
          "type": "address"
        }
      ],
      "stateMutability": "nonpayable",
      "type": "function"
    },
    {
      "inputs": [],
      "name": "owner",
      "outputs": [
        {
          "internalType": "address",
          "name": "",
          "type": "address"
        }
      ],
      "stateMutability": "view",
      "type": "function"
    },
    {
      "inputs": [
        {
          "internalType": "address",
          "name": "ca",
          "type": "address"
        }
      ],
      "name": "ownerOf",
      "outputs": [
        {
          "internalType": "address",
          "name": "owner",
          "type": "address"
        }
      ],
      "stateMutability": "view",
      "type": "function"
    },
    {
      "inputs": [],
      "name": "renounceOwnership",
      "outputs": [],
      "stateMutability": "nonpayable",
      "type": "function"
    },
    {
      "inputs": [
        {
          "internalType": "address",
          "name": "_creditAccount",
          "type": "address"
        }
      ],
      "name": "setCreditAccount",
      "outputs": [],
      "stateMutability": "nonpayable",
      "type": "function"
    },
    {
      "inputs": [
        {
          "internalType": "address",
          "name": "_trustedSource",
          "type": "address"
        }
      ],
      "name": "setTrustedSource",
      "outputs": [],
      "stateMutability": "nonpayable",
      "type": "function"
    },
    {
      "inputs": [
        {
          "internalType": "address",
          "name": "newOwner",
          "type": "address"
        }
      ],
      "name": "transferOwnership",
      "outputs": [],
      "stateMutability": "nonpayable",
      "type": "function"
    },
    {
      "inputs": [],
      "name": "trustedSource",
      "outputs": [
        {
          "internalType": "bytes32",
          "name": "",
          "type": "bytes32"
        }
      ],
      "stateMutability": "view",
      "type": "function"
    },
    {
      "inputs": [
        {
          "internalType": "address",
          "name": "_creditFacadeV3Addr",
          "type": "address"
        }
      ],
      "name": "updateCreditFacadeV3Addr",
      "outputs": [],
      "stateMutability": "nonpayable",
      "type": "function"
    },
    {
      "inputs": [
        {
          "internalType": "address",
          "name": "user",
          "type": "address"
        }
      ],
      "name": "userCa",
      "outputs": [
        {
          "internalType": "address",
          "name": "ca",
          "type": "address"
        }
      ],
      "stateMutability": "view",
      "type": "function"
    }
  ],
  "bytecode": {
    "object": "0x60806040526005805460ff60a01b1916905534801561001d57600080fd5b50604051610f63380380610f6383398101604081905261003c916100f3565b61004533610087565b600280546001600160a01b039485166001600160a01b031991821617909155600380549385169382169390931790925560048054919093169116179055610136565b600080546001600160a01b038381166001600160a01b0319831681178455604051919092169283917f8be0079c531659141344cd1fd0a4f28419497f9722a3daafe3b4186f6b6457e09190a35050565b80516001600160a01b03811681146100ee57600080fd5b919050565b60008060006060848603121561010857600080fd5b610111846100d7565b925061011f602085016100d7565b915061012d604085016100d7565b90509250925092565b610e1e806101456000396000f3fe6080604052600436106101145760003560e01c806383b59747116100a0578063cb99952311610064578063cb99952314610351578063d5438eae14610367578063ebe4107c14610387578063f2fde38b1461039a578063f82fcaed146103ba57600080fd5b806383b597471461027b5780638da5cb5b146102b85780639271adde146102d6578063bef7f365146102f6578063c12c21c01461033157600080fd5b806338ac20b1116100e757806338ac20b1146101db57806356d5d475146102115780636d0a121814610226578063715018a6146102465780637e73bc071461025b57600080fd5b80630dca87431461011957806314afd79e1461014f578063171c85031461019d5780632f7a1881146101bb575b600080fd5b34801561012557600080fd5b5060055461013a90600160a01b900460ff1681565b60405190151581526020015b60405180910390f35b34801561015b57600080fd5b5061018561016a3660046109be565b6008602052600090815260409020546001600160a01b031681565b6040516001600160a01b039091168152602001610146565b3480156101a957600080fd5b506002546001600160a01b0316610185565b3480156101c757600080fd5b50600254610185906001600160a01b031681565b3480156101e757600080fd5b506101856101f63660046109be565b6007602052600090815260409020546001600160a01b031681565b61022461021f3660046109db565b6103da565b005b34801561023257600080fd5b50600554610185906001600160a01b031681565b34801561025257600080fd5b5061022461050a565b34801561026757600080fd5b506102246102763660046109be565b61051e565b34801561028757600080fd5b506102246102963660046109be565b600580546001600160a01b0319166001600160a01b0392909216919091179055565b3480156102c457600080fd5b506000546001600160a01b0316610185565b3480156102e257600080fd5b506101856102f1366004610a6d565b610534565b34801561030257600080fd5b506103236103113660046109be565b60066020526000908152604090205481565b604051908152602001610146565b34801561033d57600080fd5b50600354610185906001600160a01b031681565b34801561035d57600080fd5b5061032360015481565b34801561037357600080fd5b50600454610185906001600160a01b031681565b610224610395366004610a99565b610547565b3480156103a657600080fd5b506102246103b53660046109be565b6105b8565b3480156103c657600080fd5b506102246103d53660046109be565b610631565b60015483146104445760405162461bcd60e51b815260206004820152602b60248201527f47617465723a2072656365697665206d6173736167652066726f6d20696e766160448201526a3634b21039b7bab931b29760a91b60648201526084015b60405180910390fd5b6004546001600160a01b0316331461049e5760405162461bcd60e51b815260206004820152601c60248201527f47617465723a20756e2d617574686f72697a6564206d61696c626f7800000000604482015260640161043b565b604051839063ffffffff8616907f63a4f0589eb6c1c0a91cd3a5a814ee19bc7f02d0555f79ce1d964f56ef73305190600090a36000806104e083850185610b21565b915091506104ee818361068d565b50506005805460ff60a01b1916600160a01b1790555050505050565b6105126107ac565b61051c6000610806565b565b6105266107ac565b6001600160a01b0316600155565b6000610540838361068d565b9392505050565b6001600160a01b0383811660009081526008602052604090205416331461059f5760405162461bcd60e51b815260206004820152600c60248201526b3bb937b7339031b0b63632b960a11b604482015260640161043b565b6105aa838383610856565b6105b3836108d6565b505050565b6105c06107ac565b6001600160a01b0381166106255760405162461bcd60e51b815260206004820152602660248201527f4f776e61626c653a206e6577206f776e657220697320746865207a65726f206160448201526564647265737360d01b606482015260840161043b565b61062e81610806565b50565b6106396107ac565b600280546001600160a01b0319166001600160a01b0383169081179091556040519081527f99b79c96e3b9c24345e2e8147cee424653416205f25f86436f90e5bf06fe255c9060200160405180910390a150565b6001600160a01b03828116600090815260066020526040812083905560025490918291166392beab1d30606060006040518463ffffffff1660e01b81526004016106d993929190610b51565b6020604051808303816000875af11580156106f8573d6000803e3d6000fd5b505050506040513d601f19601f8201168201806040525081019061071c9190610c15565b6001600160a01b0381811660008181526008602090815260408083208054958b166001600160a01b0319968716811790915583526007825291829020805485168417905560058054909416831790935580519182529181018690529192507f84d949fd69b9582eccd4675287ae38ff7962b583fbf6ffbe9b981d4cc1283cc8910160405180910390a19392505050565b6000546001600160a01b0316331461051c5760405162461bcd60e51b815260206004820181905260248201527f4f776e61626c653a2063616c6c6572206973206e6f7420746865206f776e6572604482015260640161043b565b600080546001600160a01b038381166001600160a01b0319831681178455604051919092169283917f8be0079c531659141344cd1fd0a4f28419497f9722a3daafe3b4186f6b6457e09190a35050565b600254604051633af9041f60e21b815273c02aaa39b223fe8d0a0e5c4f27ead9083c756cc2916001600160a01b03169063ebe4107c9061089e90879087908790600401610c32565b600060405180830381600087803b1580156108b857600080fd5b505af11580156108cc573d6000803e3d6000fd5b5050505050505050565b6001600160a01b03818116600081815260066020526040808220546003549151631e2de1d960e11b81526004810194909452939192911690633c5bc3b29060240161010060405180830381865afa158015610935573d6000803e3d6000fd5b505050506040513d601f19601f820116820180604052508101906109599190610d48565b505050505050509050818111156105b35760405162461bcd60e51b81526020600482015260146024820152731919589d0818d95a5b1a5b99c81c995858da195960621b604482015260640161043b565b6001600160a01b038116811461062e57600080fd5b6000602082840312156109d057600080fd5b8135610540816109a9565b600080600080606085870312156109f157600080fd5b843563ffffffff81168114610a0557600080fd5b935060208501359250604085013567ffffffffffffffff80821115610a2957600080fd5b818701915087601f830112610a3d57600080fd5b813581811115610a4c57600080fd5b886020828501011115610a5e57600080fd5b95989497505060200194505050565b60008060408385031215610a8057600080fd5b8235610a8b816109a9565b946020939093013593505050565b600080600060408486031215610aae57600080fd5b8335610ab9816109a9565b9250602084013567ffffffffffffffff80821115610ad657600080fd5b818601915086601f830112610aea57600080fd5b813581811115610af957600080fd5b8760208260051b8501011115610b0e57600080fd5b6020830194508093505050509250925092565b60008060408385031215610b3457600080fd5b823591506020830135610b46816109a9565b809150509250929050565b6000606080830160018060a01b0380881685526020838187015282885180855260808801915060808160051b8901019450828a016000805b83811015610bfc578a8803607f1901855282518051881689528601516040878a018190528151908a0181905283905b80821015610bd5578282018901518b83018d015290880190610bb8565b8a81018c01859052601f01601f19169099018a019850509385019391850191600101610b89565b5050505050604095909501959095529695505050505050565b600060208284031215610c2757600080fd5b8151610540816109a9565b6001600160a01b03848116825260406020808401829052838201859052600092606091828601600588901b8701840189875b8a811015610d1257898303605f190184528135368d9003603e19018112610c8a57600080fd5b8c018035610c97816109a9565b871684528086013536829003601e19018112610cb257600080fd5b01858101903567ffffffffffffffff811115610ccd57600080fd5b803603821315610cdc57600080fd5b8987860152808a86015280828a87013760008582018a015294860194601f01601f19169093018701925090840190600101610c64565b50909b9a5050505050505050505050565b80516fffffffffffffffffffffffffffffffff81168114610d4357600080fd5b919050565b600080600080600080600080610100898b031215610d6557600080fd5b8851975060208901519650610d7c60408a01610d23565b9550610d8a60608a01610d23565b94506080890151935060a089015161ffff81168114610da857600080fd5b60c08a015190935067ffffffffffffffff81168114610dc657600080fd5b60e08a0151909250610dd7816109a9565b80915050929598509295989093965056fea2646970667358221220142ac7932840ec486af18290459a6549961730c7cc51a4f05628b607b1e0b01464736f6c63430008130033",
    "linkReferences": {}
  },
  "methodIdentifiers": {
    "creditAccount()": "6d0a1218",
    "creditFacade()": "2f7a1881",
    "creditManager()": "c12c21c0",
    "getCreditFacadeAddr()": "171c8503",
    "handle(uint32,bytes32,bytes)": "56d5d475",
    "handled()": "0dca8743",
    "mailbox()": "d5438eae",
    "maxDebt(address)": "bef7f365",
    "multicall(address,(address,bytes)[])": "ebe4107c",
    "openCreditAccount(address,uint256)": "9271adde",
    "owner()": "8da5cb5b",
    "ownerOf(address)": "14afd79e",
    "renounceOwnership()": "715018a6",
    "setCreditAccount(address)": "83b59747",
    "setTrustedSource(address)": "7e73bc07",
    "transferOwnership(address)": "f2fde38b",
    "trustedSource()": "cb999523",
    "updateCreditFacadeV3Addr(address)": "f82fcaed",
    "userCa(address)": "38ac20b1"
  },
  "id": 72
}