{
  "abi": [
    {
      "type": "constructor",
      "inputs": [
        {
          "name": "_axiomV2QueryAddress",
          "type": "address",
          "internalType": "address"
        },
        {
          "name": "_mailBoxAddress",
          "type": "address",
          "internalType": "address"
        },
        {
          "name": "_callbackSourceChainId",
          "type": "uint64",
          "internalType": "uint64"
        },
        {
          "name": "_messageDestinationDomain",
          "type": "uint32",
          "internalType": "uint32"
        },
        {
          "name": "_axiomCallbackQuerySchema",
          "type": "bytes32",
          "internalType": "bytes32"
        }
      ],
      "stateMutability": "payable"
    },
    {
      "type": "fallback",
      "stateMutability": "payable"
    },
    {
      "type": "receive",
      "stateMutability": "payable"
    },
    {
      "type": "function",
      "name": "MODE",
      "inputs": [],
      "outputs": [
        {
          "name": "",
          "type": "uint8",
          "internalType": "enum Membership.Mode"
        }
      ],
      "stateMutability": "view"
    },
    {
      "type": "function",
      "name": "PROVING_INTERVAL",
      "inputs": [],
      "outputs": [
        {
          "name": "",
          "type": "uint32",
          "internalType": "uint32"
        }
      ],
      "stateMutability": "view"
    },
    {
      "type": "function",
      "name": "axiomCallbackQuerySchema",
      "inputs": [],
      "outputs": [
        {
          "name": "",
          "type": "bytes32",
          "internalType": "bytes32"
        }
      ],
      "stateMutability": "view"
    },
    {
      "type": "function",
      "name": "axiomV2Callback",
      "inputs": [
        {
          "name": "sourceChainId",
          "type": "uint64",
          "internalType": "uint64"
        },
        {
          "name": "callerAddr",
          "type": "address",
          "internalType": "address"
        },
        {
          "name": "querySchema",
          "type": "bytes32",
          "internalType": "bytes32"
        },
        {
          "name": "queryId",
          "type": "uint256",
          "internalType": "uint256"
        },
        {
          "name": "axiomResults",
          "type": "bytes32[]",
          "internalType": "bytes32[]"
        },
        {
          "name": "callbackExtraData",
          "type": "bytes",
          "internalType": "bytes"
        }
      ],
      "outputs": [],
      "stateMutability": "nonpayable"
    },
    {
      "type": "function",
      "name": "axiomV2QueryAddress",
      "inputs": [],
      "outputs": [
        {
          "name": "",
          "type": "address",
          "internalType": "address"
        }
      ],
      "stateMutability": "view"
    },
    {
      "type": "function",
      "name": "callbackSourceChainId",
      "inputs": [],
      "outputs": [
        {
          "name": "",
          "type": "uint64",
          "internalType": "uint64"
        }
      ],
      "stateMutability": "view"
    },
    {
      "type": "function",
      "name": "deposit",
      "inputs": [],
      "outputs": [],
      "stateMutability": "payable"
    },
    {
      "type": "function",
      "name": "dispatch",
      "inputs": [
        {
          "name": "destinationDomain",
          "type": "uint32",
          "internalType": "uint32"
        },
        {
          "name": "recipientAddress",
          "type": "bytes32",
          "internalType": "bytes32"
        },
        {
          "name": "messageBody",
          "type": "bytes",
          "internalType": "bytes"
        }
      ],
      "outputs": [
        {
          "name": "messageId",
          "type": "bytes32",
          "internalType": "bytes32"
        }
      ],
      "stateMutability": "payable"
    },
    {
      "type": "function",
      "name": "mailBoxAddress",
      "inputs": [],
      "outputs": [
        {
          "name": "",
          "type": "address",
          "internalType": "contract IMailbox"
        }
      ],
      "stateMutability": "view"
    },
    {
      "type": "function",
      "name": "messageDestinationDomain",
      "inputs": [],
      "outputs": [
        {
          "name": "",
          "type": "uint32",
          "internalType": "uint32"
        }
      ],
      "stateMutability": "view"
    },
    {
      "type": "function",
      "name": "owner",
      "inputs": [],
      "outputs": [
        {
          "name": "",
          "type": "address",
          "internalType": "address"
        }
      ],
      "stateMutability": "view"
    },
    {
      "type": "function",
      "name": "recipientAddress",
      "inputs": [],
      "outputs": [
        {
          "name": "",
          "type": "address",
          "internalType": "address"
        }
      ],
      "stateMutability": "view"
    },
    {
      "type": "function",
      "name": "renounceOwnership",
      "inputs": [],
      "outputs": [],
      "stateMutability": "nonpayable"
    },
    {
      "type": "function",
      "name": "sendProvedMembership",
      "inputs": [
        {
          "name": "provingAddress",
          "type": "address",
          "internalType": "address"
        }
      ],
      "outputs": [],
      "stateMutability": "nonpayable"
    },
    {
      "type": "function",
      "name": "setRecipient",
      "inputs": [
        {
          "name": "_recipient",
          "type": "address",
          "internalType": "address"
        }
      ],
      "outputs": [],
      "stateMutability": "nonpayable"
    },
    {
      "type": "function",
      "name": "transferOwnership",
      "inputs": [
        {
          "name": "newOwner",
          "type": "address",
          "internalType": "address"
        }
      ],
      "outputs": [],
      "stateMutability": "nonpayable"
    },
    {
      "type": "function",
      "name": "withdraw",
      "inputs": [],
      "outputs": [],
      "stateMutability": "nonpayable"
    },
    {
      "type": "event",
      "name": "AxiomV2Call",
      "inputs": [
        {
          "name": "sourceChainId",
          "type": "uint64",
          "indexed": true,
          "internalType": "uint64"
        },
        {
          "name": "callerAddr",
          "type": "address",
          "indexed": false,
          "internalType": "address"
        },
        {
          "name": "querySchema",
          "type": "bytes32",
          "indexed": true,
          "internalType": "bytes32"
        },
        {
          "name": "queryId",
          "type": "uint256",
          "indexed": true,
          "internalType": "uint256"
        }
      ],
      "anonymous": false
    },
    {
      "type": "event",
      "name": "OwnershipTransferred",
      "inputs": [
        {
          "name": "previousOwner",
          "type": "address",
          "indexed": true,
          "internalType": "address"
        },
        {
          "name": "newOwner",
          "type": "address",
          "indexed": true,
          "internalType": "address"
        }
      ],
      "anonymous": false
    }
  ],
  "bytecode": {
    "object": "0x60c0604052604051610f7e380380610f7e833981016040819052610022916100f9565b6001600160a01b03858116608052841660a05261003e3361008d565b6000805463ffffffff909316600160e01b026001600160e01b036001600160401b03909516600160a01b02949094166001600160a01b0390931692909217929092179055600155506101749050565b600080546001600160a01b038381166001600160a01b0319831681178455604051919092169283917f8be0079c531659141344cd1fd0a4f28419497f9722a3daafe3b4186f6b6457e09190a35050565b80516001600160a01b03811681146100f457600080fd5b919050565b600080600080600060a0868803121561011157600080fd5b61011a866100dd565b9450610128602087016100dd565b60408701519094506001600160401b038116811461014557600080fd5b606087015190935063ffffffff8116811461015f57600080fd5b80925050608086015190509295509295909350565b60805160a051610dd06101ae600039600081816101fa015281816105b00152610643015260008181610179015261043d0152610dd06000f3fe6080604052600436106100f65760003560e01c80638da5cb5b1161008f578063d0e30db011610061578063d0e30db0146100fd578063dc5cd53c146102e3578063f2fde38b14610303578063f86ba95a14610323578063fa31de011461034157005b80638da5cb5b14610251578063b414ae0f1461026f578063beaa70a9146102a8578063cd1cd725146102bf57005b80633ccfd60b116100c85780633ccfd60b146101d35780634ccb7c37146101e85780635aff59991461021c578063715018a61461023c57005b80630a50ec5c146100ff5780631fcbc407146101455780632a75d3be146101675780633bbed4a0146101b357005b366100fd57005b005b34801561010b57600080fd5b5060005461012790600160a01b900467ffffffffffffffff1681565b60405167ffffffffffffffff90911681526020015b60405180910390f35b34801561015157600080fd5b5061015a600181565b60405161013c9190610a93565b34801561017357600080fd5b5061019b7f000000000000000000000000000000000000000000000000000000000000000081565b6040516001600160a01b03909116815260200161013c565b3480156101bf57600080fd5b506100fd6101ce366004610ad2565b610354565b3480156101df57600080fd5b506100fd61037e565b3480156101f457600080fd5b5061019b7f000000000000000000000000000000000000000000000000000000000000000081565b34801561022857600080fd5b5060025461019b906001600160a01b031681565b34801561024857600080fd5b506100fd61041e565b34801561025d57600080fd5b506000546001600160a01b031661019b565b34801561027b57600080fd5b5060005461029390600160e01b900463ffffffff1681565b60405163ffffffff909116815260200161013c565b3480156102b457600080fd5b50610293621a5e0081565b3480156102cb57600080fd5b506102d560015481565b60405190815260200161013c565b3480156102ef57600080fd5b506100fd6102fe366004610b3d565b610432565b34801561030f57600080fd5b506100fd61031e366004610ad2565b610535565b34801561032f57600080fd5b506100fd61033e366004610ad2565b50565b6102d561034f366004610c32565b6105ab565b61035c6106de565b600280546001600160a01b0319166001600160a01b0392909216919091179055565b6103866106de565b6040514790600090339083908381818185875af1925050503d80600081146103ca576040519150601f19603f3d011682016040523d82523d6000602084013e6103cf565b606091505b505090508061041a5760405162461bcd60e51b8152602060048201526012602482015271151c985b9cd858dd1a5bdb8819985a5b195960721b60448201526064015b60405180910390fd5b5050565b6104266106de565b6104306000610738565b565b336001600160a01b037f000000000000000000000000000000000000000000000000000000000000000016146104c45760405162461bcd60e51b815260206004820152603160248201527f4178696f6d5632436c69656e743a2063616c6c6572206d757374206265206178604482015270696f6d563251756572794164647265737360781b6064820152608401610411565b6040516001600160a01b03881681528590879067ffffffffffffffff8b16907fc6d3309bf887e48755c9a455e332b73641b6bf2fd018e3b608bf21676c4c0af59060200160405180910390a461051b888888610788565b61052b8888888888888888610852565b5050505050505050565b61053d6106de565b6001600160a01b0381166105a25760405162461bcd60e51b815260206004820152602660248201527f4f776e61626c653a206e6577206f776e657220697320746865207a65726f206160448201526564647265737360d01b6064820152608401610411565b61033e81610738565b6000807f00000000000000000000000000000000000000000000000000000000000000006001600160a01b0316639c42bd188686866040518463ffffffff1660e01b81526004016105fe93929190610d08565b602060405180830381865afa15801561061b573d6000803e3d6000fd5b505050506040513d601f19601f8201168201806040525081019061063f9190610d6b565b90507f00000000000000000000000000000000000000000000000000000000000000006001600160a01b031663fa31de01828787876040518563ffffffff1660e01b815260040161069293929190610d08565b60206040518083038185885af11580156106b0573d6000803e3d6000fd5b50505050506040513d601f19601f820116820180604052508101906106d59190610d6b565b95945050505050565b6000546001600160a01b031633146104305760405162461bcd60e51b815260206004820181905260248201527f4f776e61626c653a2063616c6c6572206973206e6f7420746865206f776e65726044820152606401610411565b600080546001600160a01b038381166001600160a01b0319831681178455604051919092169283917f8be0079c531659141344cd1fd0a4f28419497f9722a3daafe3b4186f6b6457e09190a35050565b60005467ffffffffffffffff848116600160a01b90920416146107fc5760405162461bcd60e51b815260206004820152602660248201527f4178696f6d56323a2063616c6c657220736f75726365436861696e4964206d696044820152650e6dac2e8c6d60d31b6064820152608401610411565b600154811461084d5760405162461bcd60e51b815260206004820152601e60248201527f4178696f6d56323a20717565727920736368656d61206d69736d6174636800006044820152606401610411565b505050565b60008484600081811061086757610867610d84565b90506020020135905060008585600181811061088557610885610d84565b9050602002013560001c90506000868660028181106108a6576108a6610d84565b9050602002013560001c90506000878760038181106108c7576108c7610d84565b60200291909101359150507ffa2baf5d3eb95569f312f22477b246f9d4c50276f1cb3ded8e1aeadcbc07a76384146109395760405162461bcd60e51b81526020600482015260156024820152740caeccadce840e6c6d0cadac240dad2e6dac2e8c6d605b1b6044820152606401610411565b7315a43dbcd8dbc094f7866c2f458cab68c35bbe166001600160a01b038316146109a55760405162461bcd60e51b815260206004820152601760248201527f6661636164652061646472657373206d69736d617463680000000000000000006044820152606401610411565b60006109b082610a4e565b905060008160038111156109c6576109c6610a7d565b85604051602001610a0292919060f09290921b6001600160f01b031916825260601b6bffffffffffffffffffffffff1916600282015260160190565b60408051808303601f19018152919052600054600254919250610a3d91600160e01b90910463ffffffff16906001600160a01b0316836105ab565b505050505050505050505050505050565b600060068210610a6057506003919050565b60038210610a7057506002919050565b506001919050565b919050565b634e487b7160e01b600052602160045260246000fd5b6020810160028310610ab557634e487b7160e01b600052602160045260246000fd5b91905290565b80356001600160a01b0381168114610a7857600080fd5b600060208284031215610ae457600080fd5b610aed82610abb565b9392505050565b60008083601f840112610b0657600080fd5b50813567ffffffffffffffff811115610b1e57600080fd5b602083019150836020828501011115610b3657600080fd5b9250929050565b60008060008060008060008060c0898b031215610b5957600080fd5b883567ffffffffffffffff8082168214610b7257600080fd5b819950610b8160208c01610abb565b985060408b0135975060608b0135965060808b0135915080821115610ba557600080fd5b818b0191508b601f830112610bb957600080fd5b813581811115610bc857600080fd5b8c60208260051b8501011115610bdd57600080fd5b6020830196508095505060a08b0135915080821115610bfb57600080fd5b50610c088b828c01610af4565b999c989b5096995094979396929594505050565b634e487b7160e01b600052604160045260246000fd5b600080600060608486031215610c4757600080fd5b833563ffffffff81168114610c5b57600080fd5b925060208401359150604084013567ffffffffffffffff80821115610c7f57600080fd5b818601915086601f830112610c9357600080fd5b813581811115610ca557610ca5610c1c565b604051601f8201601f19908116603f01168101908382118183101715610ccd57610ccd610c1c565b81604052828152896020848701011115610ce657600080fd5b8260208601602083013760006020848301015280955050505050509250925092565b63ffffffff8416815260006020848184015260606040840152835180606085015260005b81811015610d4857858101830151858201608001528201610d2c565b506000608082860101526080601f19601f83011685010192505050949350505050565b600060208284031215610d7d57600080fd5b5051919050565b634e487b7160e01b600052603260045260246000fdfea2646970667358221220b96d087d244910844f7e435010d643e0f005033585791e9e29509c77ea55e0bd64736f6c63430008130033",
    "linkReferences": {}
  },
  "methodIdentifiers": {
    "MODE()": "1fcbc407",
    "PROVING_INTERVAL()": "beaa70a9",
    "axiomCallbackQuerySchema()": "cd1cd725",
    "axiomV2Callback(uint64,address,bytes32,uint256,bytes32[],bytes)": "dc5cd53c",
    "axiomV2QueryAddress()": "2a75d3be",
    "callbackSourceChainId()": "0a50ec5c",
    "deposit()": "d0e30db0",
    "dispatch(uint32,bytes32,bytes)": "fa31de01",
    "mailBoxAddress()": "4ccb7c37",
    "messageDestinationDomain()": "b414ae0f",
    "owner()": "8da5cb5b",
    "recipientAddress()": "5aff5999",
    "renounceOwnership()": "715018a6",
    "sendProvedMembership(address)": "f86ba95a",
    "setRecipient(address)": "3bbed4a0",
    "transferOwnership(address)": "f2fde38b",
    "withdraw()": "3ccfd60b"
  },
  "id": 27
}