{
  "abi": [
    {
      "inputs": [
        {
          "internalType": "address",
          "name": "_axiomV2QueryAddress",
          "type": "address"
        },
        {
          "internalType": "address",
          "name": "_mailBoxAddress",
          "type": "address"
        },
        {
          "internalType": "uint64",
          "name": "_callbackSourceChainId",
          "type": "uint64"
        },
        {
          "internalType": "uint32",
          "name": "_messageDestinationDomain",
          "type": "uint32"
        },
        {
          "internalType": "bytes32",
          "name": "_axiomCallbackQuerySchema",
          "type": "bytes32"
        }
      ],
      "stateMutability": "payable",
      "type": "constructor"
    },
    {
      "anonymous": false,
      "inputs": [
        {
          "indexed": true,
          "internalType": "uint64",
          "name": "sourceChainId",
          "type": "uint64"
        },
        {
          "indexed": false,
          "internalType": "address",
          "name": "callerAddr",
          "type": "address"
        },
        {
          "indexed": true,
          "internalType": "bytes32",
          "name": "querySchema",
          "type": "bytes32"
        },
        {
          "indexed": true,
          "internalType": "uint256",
          "name": "queryId",
          "type": "uint256"
        }
      ],
      "name": "AxiomV2Call",
      "type": "event"
    },
    {
      "anonymous": false,
      "inputs": [
        {
          "indexed": true,
          "internalType": "address",
          "name": "previousOwner",
          "type": "address"
        },
        {
          "indexed": true,
          "internalType": "address",
          "name": "newOwner",
          "type": "address"
        }
      ],
      "name": "OwnershipTransferred",
      "type": "event"
    },
    {
      "stateMutability": "payable",
      "type": "fallback"
    },
    {
      "inputs": [],
      "name": "PROVING_INTERVAL",
      "outputs": [
        {
          "internalType": "uint32",
          "name": "",
          "type": "uint32"
        }
      ],
      "stateMutability": "view",
      "type": "function"
    },
    {
      "inputs": [],
      "name": "axiomCallbackQuerySchema",
      "outputs": [
        {
          "internalType": "bytes32",
          "name": "",
          "type": "bytes32"
        }
      ],
      "stateMutability": "view",
      "type": "function"
    },
    {
      "inputs": [
        {
          "internalType": "uint64",
          "name": "sourceChainId",
          "type": "uint64"
        },
        {
          "internalType": "address",
          "name": "callerAddr",
          "type": "address"
        },
        {
          "internalType": "bytes32",
          "name": "querySchema",
          "type": "bytes32"
        },
        {
          "internalType": "uint256",
          "name": "queryId",
          "type": "uint256"
        },
        {
          "internalType": "bytes32[]",
          "name": "axiomResults",
          "type": "bytes32[]"
        },
        {
          "internalType": "bytes",
          "name": "callbackExtraData",
          "type": "bytes"
        }
      ],
      "name": "axiomV2Callback",
      "outputs": [],
      "stateMutability": "nonpayable",
      "type": "function"
    },
    {
      "inputs": [],
      "name": "axiomV2QueryAddress",
      "outputs": [
        {
          "internalType": "address",
          "name": "",
          "type": "address"
        }
      ],
      "stateMutability": "view",
      "type": "function"
    },
    {
      "inputs": [],
      "name": "callbackSourceChainId",
      "outputs": [
        {
          "internalType": "uint64",
          "name": "",
          "type": "uint64"
        }
      ],
      "stateMutability": "view",
      "type": "function"
    },
    {
      "inputs": [],
      "name": "deposit",
      "outputs": [],
      "stateMutability": "payable",
      "type": "function"
    },
    {
      "inputs": [
        {
          "internalType": "uint32",
          "name": "destinationDomain",
          "type": "uint32"
        },
        {
          "internalType": "bytes32",
          "name": "recipientAddress",
          "type": "bytes32"
        },
        {
          "internalType": "bytes",
          "name": "messageBody",
          "type": "bytes"
        }
      ],
      "name": "dispatch",
      "outputs": [
        {
          "internalType": "bytes32",
          "name": "messageId",
          "type": "bytes32"
        }
      ],
      "stateMutability": "payable",
      "type": "function"
    },
    {
      "inputs": [],
      "name": "mailBoxAddress",
      "outputs": [
        {
          "internalType": "contract IMailbox",
          "name": "",
          "type": "address"
        }
      ],
      "stateMutability": "view",
      "type": "function"
    },
    {
      "inputs": [],
      "name": "messageDestinationDomain",
      "outputs": [
        {
          "internalType": "uint32",
          "name": "",
          "type": "uint32"
        }
      ],
      "stateMutability": "view",
      "type": "function"
    },
    {
      "inputs": [],
      "name": "owner",
      "outputs": [
        {
          "internalType": "address",
          "name": "",
          "type": "address"
        }
      ],
      "stateMutability": "view",
      "type": "function"
    },
    {
      "inputs": [],
      "name": "recipientAddress",
      "outputs": [
        {
          "internalType": "address",
          "name": "",
          "type": "address"
        }
      ],
      "stateMutability": "view",
      "type": "function"
    },
    {
      "inputs": [],
      "name": "renounceOwnership",
      "outputs": [],
      "stateMutability": "nonpayable",
      "type": "function"
    },
    {
      "inputs": [
        {
          "internalType": "address",
          "name": "provingAddress",
          "type": "address"
        }
      ],
      "name": "sendProvedMembership",
      "outputs": [],
      "stateMutability": "nonpayable",
      "type": "function"
    },
    {
      "inputs": [
        {
          "internalType": "address",
          "name": "_recipient",
          "type": "address"
        }
      ],
      "name": "setRecipient",
      "outputs": [],
      "stateMutability": "nonpayable",
      "type": "function"
    },
    {
      "inputs": [
        {
          "internalType": "address",
          "name": "newOwner",
          "type": "address"
        }
      ],
      "name": "transferOwnership",
      "outputs": [],
      "stateMutability": "nonpayable",
      "type": "function"
    },
    {
      "inputs": [],
      "name": "withdraw",
      "outputs": [],
      "stateMutability": "nonpayable",
      "type": "function"
    },
    {
      "stateMutability": "payable",
      "type": "receive"
    }
  ],
  "bytecode": {
    "object": "0x60c0604052604051610fd9380380610fd9833981016040819052610022916100f9565b6001600160a01b03858116608052841660a05261003e3361008d565b6000805463ffffffff909316600160e01b026001600160e01b036001600160401b03909516600160a01b02949094166001600160a01b0390931692909217929092179055600155506101749050565b600080546001600160a01b038381166001600160a01b0319831681178455604051919092169283917f8be0079c531659141344cd1fd0a4f28419497f9722a3daafe3b4186f6b6457e09190a35050565b80516001600160a01b03811681146100f457600080fd5b919050565b600080600080600060a0868803121561011157600080fd5b61011a866100dd565b9450610128602087016100dd565b60408701519094506001600160401b038116811461014557600080fd5b606087015190935063ffffffff8116811461015f57600080fd5b80925050608086015190509295509295909350565b60805160a051610e2b6101ae600039600081816101cd01528181610583015261061601526000818161014c01526104100152610e2b6000f3fe6080604052600436106100eb5760003560e01c8063b414ae0f11610084578063dc5cd53c11610056578063dc5cd53c146102b6578063f2fde38b146102d6578063f86ba95a146102f6578063fa31de011461031457005b8063b414ae0f14610242578063beaa70a91461027b578063cd1cd72514610292578063d0e30db0146100f257005b80634ccb7c37116100bd5780634ccb7c37146101bb5780635aff5999146101ef578063715018a61461020f5780638da5cb5b1461022457005b80630a50ec5c146100f45780632a75d3be1461013a5780633bbed4a0146101865780633ccfd60b146101a657005b366100f257005b005b34801561010057600080fd5b5060005461011c90600160a01b900467ffffffffffffffff1681565b60405167ffffffffffffffff90911681526020015b60405180910390f35b34801561014657600080fd5b5061016e7f000000000000000000000000000000000000000000000000000000000000000081565b6040516001600160a01b039091168152602001610131565b34801561019257600080fd5b506100f26101a1366004610af7565b610327565b3480156101b257600080fd5b506100f2610351565b3480156101c757600080fd5b5061016e7f000000000000000000000000000000000000000000000000000000000000000081565b3480156101fb57600080fd5b5060025461016e906001600160a01b031681565b34801561021b57600080fd5b506100f26103f1565b34801561023057600080fd5b506000546001600160a01b031661016e565b34801561024e57600080fd5b5060005461026690600160e01b900463ffffffff1681565b60405163ffffffff9091168152602001610131565b34801561028757600080fd5b50610266621a5e0081565b34801561029e57600080fd5b506102a860015481565b604051908152602001610131565b3480156102c257600080fd5b506100f26102d1366004610b62565b610405565b3480156102e257600080fd5b506100f26102f1366004610af7565b610508565b34801561030257600080fd5b506100f2610311366004610af7565b50565b6102a8610322366004610c57565b61057e565b61032f6106b1565b600280546001600160a01b0319166001600160a01b0392909216919091179055565b6103596106b1565b6040514790600090339083908381818185875af1925050503d806000811461039d576040519150601f19603f3d011682016040523d82523d6000602084013e6103a2565b606091505b50509050806103ed5760405162461bcd60e51b8152602060048201526012602482015271151c985b9cd858dd1a5bdb8819985a5b195960721b60448201526064015b60405180910390fd5b5050565b6103f96106b1565b610403600061070b565b565b336001600160a01b037f000000000000000000000000000000000000000000000000000000000000000016146104975760405162461bcd60e51b815260206004820152603160248201527f4178696f6d5632436c69656e743a2063616c6c6572206d757374206265206178604482015270696f6d563251756572794164647265737360781b60648201526084016103e4565b6040516001600160a01b03881681528590879067ffffffffffffffff8b16907fc6d3309bf887e48755c9a455e332b73641b6bf2fd018e3b608bf21676c4c0af59060200160405180910390a46104ee88888861075b565b6104fe8888888888888888610825565b5050505050505050565b6105106106b1565b6001600160a01b0381166105755760405162461bcd60e51b815260206004820152602660248201527f4f776e61626c653a206e6577206f776e657220697320746865207a65726f206160448201526564647265737360d01b60648201526084016103e4565b6103118161070b565b6000807f00000000000000000000000000000000000000000000000000000000000000006001600160a01b0316639c42bd188686866040518463ffffffff1660e01b81526004016105d193929190610d2d565b602060405180830381865afa1580156105ee573d6000803e3d6000fd5b505050506040513d601f19601f820116820180604052508101906106129190610d90565b90507f00000000000000000000000000000000000000000000000000000000000000006001600160a01b031663fa31de01828787876040518563ffffffff1660e01b815260040161066593929190610d2d565b60206040518083038185885af1158015610683573d6000803e3d6000fd5b50505050506040513d601f19601f820116820180604052508101906106a89190610d90565b95945050505050565b6000546001600160a01b031633146104035760405162461bcd60e51b815260206004820181905260248201527f4f776e61626c653a2063616c6c6572206973206e6f7420746865206f776e657260448201526064016103e4565b600080546001600160a01b038381166001600160a01b0319831681178455604051919092169283917f8be0079c531659141344cd1fd0a4f28419497f9722a3daafe3b4186f6b6457e09190a35050565b60005467ffffffffffffffff848116600160a01b90920416146107cf5760405162461bcd60e51b815260206004820152602660248201527f4178696f6d56323a2063616c6c657220736f75726365436861696e4964206d696044820152650e6dac2e8c6d60d31b60648201526084016103e4565b60015481146108205760405162461bcd60e51b815260206004820152601e60248201527f4178696f6d56323a20717565727920736368656d61206d69736d61746368000060448201526064016103e4565b505050565b60008484600081811061083a5761083a610da9565b90506020020135905060008585600181811061085857610858610da9565b9050602002013560001c905060008686600281811061087957610879610da9565b9050602002013560001c905060008787600381811061089a5761089a610da9565b60200291909101359150507ffa2baf5d3eb95569f312f22477b246f9d4c50276f1cb3ded8e1aeadcbc07a763841461090c5760405162461bcd60e51b81526020600482015260156024820152740caeccadce840e6c6d0cadac240dad2e6dac2e8c6d605b1b60448201526064016103e4565b7315a43dbcd8dbc094f7866c2f458cab68c35bbe166001600160a01b038316146109785760405162461bcd60e51b815260206004820152601760248201527f6661636164652061646472657373206d69736d6174636800000000000000000060448201526064016103e4565b600061098382610ab1565b9050600181600381111561099957610999610dbf565b036109fd576000674563918244f40000856040516020016109bb929190610dd5565b60408051808303601f190181529190526000546002549192506109f691600160e01b90910463ffffffff16906001600160a01b03168361057e565b5050610aa2565b6002816003811115610a1157610a11610dbf565b03610a345760006801158e460913d00000856040516020016109bb929190610dd5565b6003816003811115610a4857610a48610dbf565b03610aa257600060001985604051602001610a64929190610dd5565b60408051808303601f19018152919052600054600254919250610a9f91600160e01b90910463ffffffff16906001600160a01b03168361057e565b50505b50505050505050505050505050565b600060068210610ac357506003919050565b60038210610ad357506002919050565b506001919050565b919050565b80356001600160a01b0381168114610adb57600080fd5b600060208284031215610b0957600080fd5b610b1282610ae0565b9392505050565b60008083601f840112610b2b57600080fd5b50813567ffffffffffffffff811115610b4357600080fd5b602083019150836020828501011115610b5b57600080fd5b9250929050565b60008060008060008060008060c0898b031215610b7e57600080fd5b883567ffffffffffffffff8082168214610b9757600080fd5b819950610ba660208c01610ae0565b985060408b0135975060608b0135965060808b0135915080821115610bca57600080fd5b818b0191508b601f830112610bde57600080fd5b813581811115610bed57600080fd5b8c60208260051b8501011115610c0257600080fd5b6020830196508095505060a08b0135915080821115610c2057600080fd5b50610c2d8b828c01610b19565b999c989b5096995094979396929594505050565b634e487b7160e01b600052604160045260246000fd5b600080600060608486031215610c6c57600080fd5b833563ffffffff81168114610c8057600080fd5b925060208401359150604084013567ffffffffffffffff80821115610ca457600080fd5b818601915086601f830112610cb857600080fd5b813581811115610cca57610cca610c41565b604051601f8201601f19908116603f01168101908382118183101715610cf257610cf2610c41565b81604052828152896020848701011115610d0b57600080fd5b8260208601602083013760006020848301015280955050505050509250925092565b63ffffffff8416815260006020848184015260606040840152835180606085015260005b81811015610d6d57858101830151858201608001528201610d51565b506000608082860101526080601f19601f83011685010192505050949350505050565b600060208284031215610da257600080fd5b5051919050565b634e487b7160e01b600052603260045260246000fd5b634e487b7160e01b600052602160045260246000fd5b91825260601b6bffffffffffffffffffffffff191660208201526034019056fea2646970667358221220a7f835246f640b2824b58268f37324508f9737a185591990d1a015d32a2ea77e64736f6c63430008130033",
    "linkReferences": {}
  },
  "methodIdentifiers": {
    "PROVING_INTERVAL()": "beaa70a9",
    "axiomCallbackQuerySchema()": "cd1cd725",
    "axiomV2Callback(uint64,address,bytes32,uint256,bytes32[],bytes)": "dc5cd53c",
    "axiomV2QueryAddress()": "2a75d3be",
    "callbackSourceChainId()": "0a50ec5c",
    "deposit()": "d0e30db0",
    "dispatch(uint32,bytes32,bytes)": "fa31de01",
    "mailBoxAddress()": "4ccb7c37",
    "messageDestinationDomain()": "b414ae0f",
    "owner()": "8da5cb5b",
    "recipientAddress()": "5aff5999",
    "renounceOwnership()": "715018a6",
    "sendProvedMembership(address)": "f86ba95a",
    "setRecipient(address)": "3bbed4a0",
    "transferOwnership(address)": "f2fde38b",
    "withdraw()": "3ccfd60b"
  },
  "id": 19
}