{
  "abi": [
    {
      "inputs": [
        {
          "internalType": "address",
          "name": "_mailbox",
          "type": "address"
        }
      ],
      "stateMutability": "nonpayable",
      "type": "constructor"
    },
    {
      "anonymous": false,
      "inputs": [
        {
          "indexed": true,
          "internalType": "address",
          "name": "previousOwner",
          "type": "address"
        },
        {
          "indexed": true,
          "internalType": "address",
          "name": "newOwner",
          "type": "address"
        }
      ],
      "name": "OwnershipTransferred",
      "type": "event"
    },
    {
      "anonymous": false,
      "inputs": [
        {
          "indexed": true,
          "internalType": "address",
          "name": "userAddress",
          "type": "address"
        },
        {
          "indexed": true,
          "internalType": "uint16",
          "name": "tier",
          "type": "uint16"
        }
      ],
      "name": "TeirUpdated",
      "type": "event"
    },
    {
      "inputs": [
        {
          "internalType": "uint32",
          "name": "_origin",
          "type": "uint32"
        },
        {
          "internalType": "bytes32",
          "name": "_sender",
          "type": "bytes32"
        },
        {
          "internalType": "bytes",
          "name": "_message",
          "type": "bytes"
        }
      ],
      "name": "handle",
      "outputs": [],
      "stateMutability": "payable",
      "type": "function"
    },
    {
      "inputs": [],
      "name": "owner",
      "outputs": [
        {
          "internalType": "address",
          "name": "",
          "type": "address"
        }
      ],
      "stateMutability": "view",
      "type": "function"
    },
    {
      "inputs": [],
      "name": "renounceOwnership",
      "outputs": [],
      "stateMutability": "nonpayable",
      "type": "function"
    },
    {
      "inputs": [
        {
          "internalType": "uint32",
          "name": "_origin",
          "type": "uint32"
        },
        {
          "internalType": "address",
          "name": "_trustedSource",
          "type": "address"
        }
      ],
      "name": "setTrustedSource",
      "outputs": [],
      "stateMutability": "nonpayable",
      "type": "function"
    },
    {
      "inputs": [
        {
          "internalType": "address",
          "name": "newOwner",
          "type": "address"
        }
      ],
      "name": "transferOwnership",
      "outputs": [],
      "stateMutability": "nonpayable",
      "type": "function"
    },
    {
      "inputs": [
        {
          "internalType": "uint32",
          "name": "origin",
          "type": "uint32"
        }
      ],
      "name": "trustedSources",
      "outputs": [
        {
          "internalType": "address",
          "name": "source",
          "type": "address"
        }
      ],
      "stateMutability": "view",
      "type": "function"
    },
    {
      "inputs": [
        {
          "internalType": "address",
          "name": "user",
          "type": "address"
        }
      ],
      "name": "userTier",
      "outputs": [
        {
          "internalType": "uint16",
          "name": "tier",
          "type": "uint16"
        }
      ],
      "stateMutability": "view",
      "type": "function"
    }
  ],
  "bytecode": {
    "object": "0x608060405234801561001057600080fd5b5060405161072338038061072383398101604081905261002f916100ad565b6100383361005d565b600180546001600160a01b0319166001600160a01b03929092169190911790556100dd565b600080546001600160a01b038381166001600160a01b0319831681178455604051919092169283917f8be0079c531659141344cd1fd0a4f28419497f9722a3daafe3b4186f6b6457e09190a35050565b6000602082840312156100bf57600080fd5b81516001600160a01b03811681146100d657600080fd5b9392505050565b610637806100ec6000396000f3fe6080604052600436106100705760003560e01c80638ce0a1fc1161004e5780638ce0a1fc146100e85780638da5cb5b14610136578063afd164d114610154578063f2fde38b1461017457600080fd5b806321c7557c1461007557806356d5d475146100be578063715018a6146100d3575b600080fd5b34801561008157600080fd5b506100a66100903660046104c6565b60036020526000908152604090205461ffff1681565b60405161ffff90911681526020015b60405180910390f35b6100d16100cc366004610503565b610194565b005b3480156100df57600080fd5b506100d161033c565b3480156100f457600080fd5b5061011e61010336600461058a565b6002602052600090815260409020546001600160a01b031681565b6040516001600160a01b0390911681526020016100b5565b34801561014257600080fd5b506000546001600160a01b031661011e565b34801561016057600080fd5b506100d161016f3660046105a5565b610350565b34801561018057600080fd5b506100d161018f3660046104c6565b61038e565b6001546001600160a01b031633146101f35760405162461bcd60e51b815260206004820152601c60248201527f47617465723a20756e2d617574686f72697a6564206d61696c626f780000000060448201526064015b60405180910390fd5b63ffffffff84166000908152600260205260409020546001600160a01b031661025e5760405162461bcd60e51b815260206004820152601e60248201527f47617465723a207472757374656420736f75726365206e6f74207365742e000060448201526064016101ea565b63ffffffff84166000908152600260205260409020546001600160a01b031683146102cb5760405162461bcd60e51b815260206004820152601960248201527f47617465723a206f726967696e206e6f7420747275737465640000000000000060448201526064016101ea565b6000806102da838501856105dc565b6001600160a01b038116600081815260036020526040808220805461ffff191661ffff87169081179091559051949650929450919290917f4fae4cd60453a42753ed81d575172d4a8cbe707d5f648963869f50f0ca30454591a3505050505050565b610344610407565b61034e6000610461565b565b610358610407565b63ffffffff91909116600090815260026020526040902080546001600160a01b0319166001600160a01b03909216919091179055565b610396610407565b6001600160a01b0381166103fb5760405162461bcd60e51b815260206004820152602660248201527f4f776e61626c653a206e6577206f776e657220697320746865207a65726f206160448201526564647265737360d01b60648201526084016101ea565b61040481610461565b50565b6000546001600160a01b0316331461034e5760405162461bcd60e51b815260206004820181905260248201527f4f776e61626c653a2063616c6c6572206973206e6f7420746865206f776e657260448201526064016101ea565b600080546001600160a01b038381166001600160a01b0319831681178455604051919092169283917f8be0079c531659141344cd1fd0a4f28419497f9722a3daafe3b4186f6b6457e09190a35050565b6001600160a01b038116811461040457600080fd5b6000602082840312156104d857600080fd5b81356104e3816104b1565b9392505050565b803563ffffffff811681146104fe57600080fd5b919050565b6000806000806060858703121561051957600080fd5b610522856104ea565b935060208501359250604085013567ffffffffffffffff8082111561054657600080fd5b818701915087601f83011261055a57600080fd5b81358181111561056957600080fd5b88602082850101111561057b57600080fd5b95989497505060200194505050565b60006020828403121561059c57600080fd5b6104e3826104ea565b600080604083850312156105b857600080fd5b6105c1836104ea565b915060208301356105d1816104b1565b809150509250929050565b600080604083850312156105ef57600080fd5b823561ffff811681146105c157600080fdfea2646970667358221220fab5063ff8906a408000a68019d79d851bd72226ee1bdf02b7119adb0178d66f64736f6c63430008130033",
    "linkReferences": {}
  },
  "methodIdentifiers": {
    "handle(uint32,bytes32,bytes)": "56d5d475",
    "owner()": "8da5cb5b",
    "renounceOwnership()": "715018a6",
    "setTrustedSource(uint32,address)": "afd164d1",
    "transferOwnership(address)": "f2fde38b",
    "trustedSources(uint32)": "8ce0a1fc",
    "userTier(address)": "21c7557c"
  },
  "id": 75
}